:100000000C946D020C948A020C948A020C948A025D
:100010000C948A020C948A020C948A020C948A0230
:100020000C948A020C948A020C949B110C94D511A6
:100030000C948A020C948A020C948A020C948A0210
:100040000C948A020C948A020C948A020C948A0200
:100050000C948A020C948A020C948A020C948C02EE
:100060000C948A020C94A7130C947C130C948A02AF
:100070000C948A020C948A020C948A020C948A02D0
:100080000C948A020C948A020C948A020C941E032B
:100090000C948A020C948A020C948A020C948A02B0
:1000A0000C948A020C948A020C948A023C11381136
:1000B000341130112C112811241120111C11181188
:1000C000141110110C11081104110011FC10F8107A
:1000D000F410F010EC10E810E410E010DC10D81070
:1000E000D410D010CC10C810C410C010BC10B81060
:1000F000B410B010AC10A810A410A0109C10981050
:10010000941090108C108810841080107C1078103F
:10011000741070106C106810641060105C1058102F
:10012000541050104C104810441040103C106E6198
:100130006E00696E660000407A10F35A00A0724E9D
:1001400018090010A5D4E80000E87648170000E47C
:100150000B54020000CA9A3B000000E1F5050000C4
:1001600080969800000040420F000000A086010029
:100170000000102700000000E803000000006400F9
:10018000000000000A000000000001000000000064
:100190002C76D888DC674F0823DFC1DFAE59E1B188
:1001A000B796E5E3E453C63AE651997696E8E6C297
:1001B0008426EB898C9B62ED407C6FFCEFBC9C9F9E
:1001C00040F2BAA56FA5F490055A2AF75C936B6CC0
:1001D000F9676DC11BFCE0E40D47FEF520E6B500B4
:1001E000D0ED902E0300943577050080841E080022
:1001F00000204E0A000000C80C333333330F986ED2
:1002000012831141EF8D2114893BE65516CFFEE68E
:10021000DB18D1844B381BF77C1D901DA4BBE42454
:10022000203284725E228100C9F124ECA1E53D27D1
:1002300000010000DD0212000200009A02430003E8
:100240000000960204010309048002140203090459
:10025000680216030309045A020C0C033100320031
:1002600033003400350000001603550053004200EF
:100270002000530065007200690061006C000000FE
:10028000140359006F007500720020004E006100D9
:100290006D00650000000403090409024300020127
:1002A00000C0320904000001020201000524001010
:1002B00001052401010104240206052406000107AA
:1002C00005820310004009040100020A0000000733
:1002D00005030240000007058402400000120100EF
:1002E0000202000010C0167A04000101020301009E
:1002F00001C11201803601813600000000000000BB
:100300005F00000007000700147F147F14242A7F79
:100310002A1223130864623649552250000503004F
:1003200000001C2241000041221C0014083E081459
:1003300008083E08080050300000080808080800B7
:100340006060000020100804023E5149453E004212
:100350007F400042615149462141454B31181412FA
:100360007F1027454545393C4A4949300171090507
:10037000033649494936064949291E0036360000E8
:1003800000563600000814224100141414141400FE
:10039000412214080201510906324979413E7E1179
:1003A00011117E7F494949363E414141227F4141F9
:1003B000221C7F494949417F090909013E414949B8
:1003C0007A7F0808087F00417F41002040413F01BB
:1003D0007F081422417F404040407F020C027F7F13
:1003E0000408107F3E4141413E7F090909063E4114
:1003F00051215E7F09192946464949493101017F4A
:1004000001013F4040403F1F2040201F3F403840F7
:100410003F63140814630708700807615149454396
:10042000007F41410002040810200041417F000488
:1004300002010204404040404000010204002054F8
:100440005454787F48444438384444442038444421
:10045000487F3854545418087E0901020C525252F5
:100460003E7F0804047800447D40002040443D0065
:100470007F1028440000417F40007C041804787CF1
:100480000804047838444444387C141414080814CC
:1004900014187C7C080404084854545420043F4435
:1004A00040203C4040207C1C2040201C3C403040F0
:1004B0003C44281028440C5050503C4464544C4454
:1004C000000836410000007F00000041360800109F
:1004D0000808100878464146780011241FBECFEF67
:1004E000DAE0DEBFCDBF12E0A0E0B1E0EAEBFFE36F
:1004F00002C005900D92A231B107D9F726E0A2E122
:10050000B2E001C01D92AD30B207E1F70E94F70DD5
:100510000C94DB1F0C9400001F920F920FB60F92E9
:1005200011248F939F93CF93DF931F92CDB7DEB7A4
:1005300080912202880F809322028FE78983909115
:10054000220289818923809322028FB19091220215
:1005500085FB882780F9892B8093220290912202C3
:100560008981981304C081E08093F70206C08091CE
:100570002202811102C01092F7020F90DF91CF91F9
:100580009F918F910F900FBE0F901F901895CF9253
:10059000DF92EF92FF92CF93DF93C0919400D091BE
:1005A0009500BC01990F880B990B0E940F1B20E04E
:1005B00030E040E857E40E94701C6B017C01BE01F2
:1005C00080E090E00E940D1B9B01AC01C701B601C9
:1005D0000E94F41920E030E040E852E40E94701CD0
:1005E00020E034E244EF5AE40E94651ADF91CF9193
:1005F000FF90EF90DF90CF9008958091200290912E
:1006000021020E94C7020E94D71A709326026093AB
:1006100025026C33710589F480912702909128029C
:10062000019690932802809327021092260210923E
:100630002502109221021092200208951F920F921B
:100640000FB60F9211248F939F93809124028111F2
:1006500037C080912002909121020196909321024F
:1006600080932002809118029091190205974CF412
:1006700080911E0290911F02019690931F02809319
:100680001E02809116029091170205974CF48091FA
:100690001C0290911D02019690931D0280931C02F2
:1006A0008091120290911302181619064CF0809155
:1006B0001A0290911B02019690931B0280931A02DA
:1006C0009F918F910F900FBE0F901F901895FB0177
:1006D000EE0FFF1FE80FF91F809118029091190289
:1006E000681779073CF482819381819391936F5FBE
:1006F0007F4FF2CF0895E9EDF2E02FEF3FEF318326
:1007000020831382128281E090E095838483178294
:10071000168211861086E6EBF3E031832083338363
:100720002283358324831782168291878087ECED9C
:10073000F3E03183208313821282958384831782AE
:1007400016821186108633872287EDECF2E0318322
:1007500020833383228335832483178216829187F3
:10076000808793878287E1ECF2E0318320831382D4
:1007700012829583848397838683918780871386EB
:100780001286E8EFF2E091838083938382839583DE
:100790008483178216823187208713861286E5EEBE
:1007A000F2E01182108233832283158214829783B0
:1007B00086833187208793878287358724871786AA
:1007C0001686918B808BE3E0F4E04EEF5FEF518370
:1007D00040833383228335832483378326831186A2
:1007E0001086138612869587848797878687918BD4
:1007F000808BE8EEF3E031832083338322833583DB
:1008000024831782168211861086938782879587A4
:10081000848797878687E2ECF3E031832083138215
:1008200012829583848317821682918780879387AB
:10083000828715861486378726870895E8E9F3E0CE
:100840001182108221E030E03383228335832483B8
:1008500037832683118610864FEF5FEF53874287D9
:100860008EEF9FEF9587848797878687918B808B04
:10087000938B828B958B848B578B468B118E108E2E
:10088000338F228F358F248FE3EAF2E011821082BA
:10089000138212825583448397838683918780874E
:1008A000938782879587848757874687118A108A1E
:1008B000338B228B82E090E0958B848B978B868B99
:1008C000918F808F938F828F358F248F08958AE444
:1008D00090E09093DB038093DA0387E290E09093BB
:1008E000E4028093E30281E090E0909375038093AB
:1008F00074039093D7038093D60308956091E30225
:100900007091E40241E08091DA039091DB030E9450
:10091000E9136091E3027091E4028091DA0390910F
:10092000DB0341E001960E94E9136091E3027091BC
:10093000E4028091DA039091DB0341E002960E9489
:10094000E9136091E3027091E4026F5F7F4F809141
:10095000DA039091DB0341E001960E94E913609174
:10096000E3027091E4026E5F7F4F8091DA03909111
:10097000DB0341E001960C94E9138091240281117C
:1009800032C060917403709175032091DA03309145
:10099000DB03260F371F3093DB032093DA034091EC
:1009A000D6035091D7038091E3029091E402840F23
:1009B000951F9093E4028093E30221503109203582
:1009C000310538F0719561957109709375036093E5
:1009D00074030A97839738F05195419551095093C4
:1009E000D7034093D60308951092770310927603AD
:1009F00089E090E09093730380937203089560916F
:100A000072037091730341E08091760390917703B4
:100A10000E94E913609172037091730380917603D1
:100A20009091770341E001960E94E913609172036F
:100A300070917303809176039091770341E0029661
:100A40000E94E91360917203709173036F5F7F4F8F
:100A5000809176039091770341E001960E94E9131B
:100A600060917203709173036E5F7F4F41E08091DC
:100A70007603909177030E94E9136091720370915D
:100A800073036E5F7F4F809176039091770341E00F
:100A900001960C94E9134F925F926F927F928F921E
:100AA0009F92AF92BF92CF92DF92EF92FF920F93FD
:100AB0001F93CF93DF9380911E0290911F020E949B
:100AC000C7026B017C01C0911802D0911902C53098
:100AD000D1050CF04BC020E030E040E050E40E9433
:100AE0006C1B4B015C012CEE31E548E35DEB0E9491
:100AF0006B1C1816DCF52CEE31E548E35DE3C5010F
:100B0000B4010E94601A87FF31C020E030E040E06D
:100B100050E4C701B6010E946B1C87FD27C00E94EC
:100B2000B01DCC0FDD1FC05CDC4F6AE470E00E949A
:100B3000DD1C079699838883C0911802D091190211
:100B40000E94B01DCC0FDD1FCA5CDC4F64E270E078
:100B50000E94DD1C099699838883809118029091E8
:100B600019020196909319028093180246E3E42E2D
:100B700043E0F42E50E4C52E53E0D52E8601E70164
:100B8000A12CB12C8091180290911902A816B906D7
:100B90000CF044C068817981F8018081918141E045
:100BA00002960E94E913688179816F5F7F4FF80197
:100BB0008081918141E001960E94E91368817981E9
:100BC0006F5F7F4FF8018081918141E002960E9422
:100BD000E913688179816E5F7F4F41E0F801808180
:100BE00091810E94E913688179816E5F7F4FF801DE
:100BF0008081918141E001960E94E9136991799188
:100C00006E5F7F4FF801819191918F0141E00296D3
:100C10000E94E913FFEFAF1ABF0AB4CFC0E0D0E0E3
:100C20003DEC432E32E0532E809118029091190230
:100C3000C817D9070CF06CC00DEC12E08CED682ED3
:100C400083E0782E91EC892E92E0992E28EFA22E47
:100C500022E0B22EF401419151914F01F3018081C4
:100C600091812091760330917703280F391FF60187
:100C700080819181840F951F2817390781F5F8012C
:100C8000208131818091720390917303280F391F65
:100C9000F70140815181F50180819181840F951F79
:100CA00028173907E1F4BE0180E493E00E9467034E
:100CB000BE0186E393E00E94670380911802909141
:100CC00019020197909319028093180280912902CA
:100CD00090912A02019690932A0280932902F2E0D1
:100CE000AF0EB11C4814590409F0B4CF0E5F1F4F6A
:100CF00082E0680E711CE2E0093D1E0709F0A2CFF8
:100D00002196F2E0EF0EF11C82E0C80ED11C8CCFD0
:100D1000DF91CF911F910F91FF90EF90DF90CF90D7
:100D2000BF90AF909F908F907F906F905F904F900B
:100D300008950E94B01D6AE470E00E94DD1C0396D5
:100D40009093C1038093C0030E94B01D66E270E0DF
:100D50000E94DD1C09969093D9038093D8030895CF
:100D60006091D8037091D90341E08091C0039091C4
:100D7000C1030E94E9136091D8037091D903809157
:100D8000C0039091C10341E001960E94E913609174
:100D9000D8037091D9038091C0039091C10341E0C1
:100DA00002960E94E9136091D8037091D903809153
:100DB000C0039091C10341E003960E94E913609142
:100DC000D8037091D9036F5F7F4F41E08091C003DA
:100DD0009091C1030E94E9136091D8037091D903E7
:100DE0006F5F7F4F8091C0039091C10341E00396F4
:100DF0000E94E9136091D8037091D9036E5F7F4F11
:100E000041E08091C0039091C1030E94E913609179
:100E1000D8037091D9036E5F7F4F8091C00390918A
:100E2000C10341E002960E94E9136091D8037091DA
:100E3000D9036E5F7F4F8091C0039091C10341E061
:100E400003960E94E9136091D8037091D9036D5FF6
:100E50007F4F41E08091C0039091C1030E94E9134C
:100E60006091D8037091D9036D5F7F4F8091C0036B
:100E70009091C10341E003960E94E9136091D80369
:100E80007091D9036C5F7F4F41E08091C0039091D6
:100E9000C1030E94E9136091D8037091D9036C5F7C
:100EA0007F4F8091C0039091C10341E001960E9461
:100EB000E9136091D8037091D9036C5F7F4F8091E3
:100EC000C0039091C10341E002960E94E913609132
:100ED000D8037091D9036C5F7F4F8091C0039091CC
:100EE000C10341E003960C94E9132F923F924F9275
:100EF0005F926F927F928F929F92AF92BF92CF92AA
:100F0000DF92EF92FF920F931F93CF93DF93CDB7B2
:100F1000DEB728970FB6F894DEBF0FBECDBF809125
:100F2000F803882319F180911402909115028531FC
:100F30009105E4F49C01220F331FF901EC5FFC4F93
:100F4000409176035091770351834083F901E65B2A
:100F5000FC4F409172035091730351834083109270
:100F6000F803019690931502809314028090140266
:100F7000909015022091DA033091DB033E832D839C
:100F80002090E3023090E4028AE493E09C838B8318
:100F9000E4E0F3E0FA83E9835F018C0118861F82A5
:100FA000412C512C30E8632E3FE3732E7301620114
:100FB0008F819885881599050CF041C0F5016081F5
:100FC0007181E894F7F82D813E816217730724F050
:100FD000F7FAF094F7F8F094072E000C880B990BB1
:100FE0000E940F1BA70196010E94F4190E94D71AB4
:100FF000F501619371935F01F80160817181E8945B
:1010000077F86215730524F077FA709477F8709486
:10101000072E000C880B990B0E940F1BA301920155
:101020000E94F4190E94D71AF801619371938F01FD
:101030002F8138852F5F3F4F38872F83B9CF181402
:1010400019040CF0D2C024E0E22E23E0F22E0AE4D0
:1010500013E01E821D828091140290911502ED8191
:10106000FE81E817F90794F4F801619171918F01FD
:1010700041E0F701819191917F010E94E9132D8157
:101080003E812F5F3F4F3E832D83E5CF1E821D8221
:1010900097E2292E312C8091140290911502ED8156
:1010A000FE81E817F9070CF0A0C089EDE82E82E078
:1010B000F82E06EB13E06091DA037091DB03072E44
:1010C000000C880B990B0E940F1B0E944A1B4B01BE
:1010D0005C01F701C190D1907F01E981FA816081C3
:1010E0007181072E000C880B990B0E940F1B2B019E
:1010F0003C01B601DD0C880B990B0E940F1BA5016A
:1011000094010E94F4199B01AC01C301B2010E9439
:10111000601A811151C06091E3027091E402072EC0
:10112000000C880B990B0E940F1B0E944A1B4B015D
:101130005C01EB81FC8160817181072E000C880BC2
:10114000990B0E940F1B2B013C01F80160817181FA
:10115000072E000C880B990B0E940F1BA501940110
:101160000E94F4199B01AC01C301B2010E94601AF4
:10117000811122C06D817E8184E093E00E9467032B
:10118000809114029091150201979093150280931B
:1011900014028091290290912A02019690932A02CA
:1011A000809329022AE430E03093DB032093DA03B2
:1011B0003092E4022092E3020E5F1F4F83EE92E032
:1011C0008E159F0509F077CFED81FE813196FE8364
:1011D000ED832B813C812E5F3F4F3C832B838981A4
:1011E0009A8102969A83898356CF28960FB6F894EF
:1011F000DEBF0FBECDBFDF91CF911F910F91FF904A
:10120000EF90DF90CF90BF90AF909F908F907F90A6
:101210006F905F904F903F902F900895809129029A
:1012200090912A0203973CF0189B05C081E08093BF
:10123000F8030C94750708958F929F92AF92BF9216
:10124000CF92DF92EF92FF920F931F93CF93DF9392
:1012500080911A0290911B020E94C7026B017C01CF
:10126000C0911202D09113021C161D060CF43FC04F
:1012700020E030E040EA50E40E946C1B4B015C012E
:101280002CEE31E548E35DEB0E946B1C18160CF068
:1012900092C02CEE31E548E35DE3C501B4010E9444
:1012A000601A87FF88C020E030E040EA50E4C701C0
:1012B000B6010E946B1C87FD7EC0CE01880F991F6E
:1012C000FC01EE52FC4F2091DA033091DB033183B5
:1012D0002083FC01EC52FC4F2091E3023091E402A8
:1012E000318320832196D0931302C093120204ED20
:1012F00013E0C2EDD3E0E12CF12C80911202909129
:101300001302E816F9060CF056C0F80160817181ED
:1013100041E0888199810E94E913F801608171811F
:101320008881998141E002960E94E913F801608169
:1013300071816F5F7F4F41E0888199810E94E9133D
:10134000F801608171816F5F7F4F8881998141E0F1
:1013500001960E94E913F801608171816F5F7F4FF0
:101360008881998141E002960E94E913F801608129
:1013700071816E5F7F4F41E0888199810E94E913FE
:10138000F801608171816E5F7F4F8881998141E0B2
:1013900001960E94E913F801619171918F016E5FCE
:1013A0007F4F8991999141E002960E94E913FFEFE6
:1013B000EF1AFF0AA2CFDF91CF911F910F91FF90FB
:1013C000EF90DF90CF90BF90AF909F908F90089557
:1013D0000E94E11321E041E151E060E070E08AE029
:1013E00090E00E94EA1521E04FE151E06AE070E0F0
:1013F00084E190E00E94EA1521E049E251E069E1D0
:1014000070E084E090E00E94EA1521E049E351E0B9
:1014100063E270E085E090E00E94EA150C94CE1340
:101420007D9B06C09091240281E08927809324024D
:1014300008950E94E11321E049E451E065E070E085
:1014400084E190E00E94EA1521E043E551E064E187
:1014500070E08AE190E00E94EA1521E04AE551E05F
:101460006EE170E08FE090E00E94EA150C94CE13DC
:10147000AF92BF92CF92DF92EF92FF920F931F93A2
:10148000CF93DF93499B0CC08091720390917303BB
:101490008A3091052CF00197909373038093720327
:1014A0001F9B0CC080917203909173038D32910544
:1014B0002CF401969093730380937203199B0CC0D4
:1014C0008091760390917703181619062CF40197F2
:1014D0009093770380937603489B0CC080917603AA
:1014E00090917703813591052CF4019690937703C1
:1014F00080937603CCEDD3E09DECC92E92E0D92EFB
:1015000023EEA22E22E0B22E89EDE82E82E0F82E04
:1015100006EB13E0F701419151917F018881998198
:101520002091760330917703280F391F8091DA03D9
:101530009091DB03840F951F2817390731F00E5F58
:101540001F4FAE14BF0431F728C0F601208131814E
:101550008091720390917303280F391FF801408125
:1015600051818091E3029091E402840F951F281726
:10157000390729F78091000190910101019790931B
:1015800001018093000180910001909101011816E2
:101590001906ACF20E94190AF6CF2296F2E0CF0E9D
:1015A000D11C83E0C83ED80709F0AECFDF91CF91C0
:1015B0001F910F91FF90EF90DF90CF90BF90AF9071
:1015C00008954F925F926F927F928F929F92AF9207
:1015D000BF92CF92DF92EF92FF920F931F93CF9320
:1015E000DF9380911C0290911D020E94C7026B0143
:1015F0007C01C0911602D0911702C530D1050CF0C4
:101600003EC020E030E040E450E40E946C1B4B01FF
:101610005C012CEE31E548E35DEB0E946B1C181673
:1016200074F52CEE31E548E35DE3C501B4010E9499
:10163000601A87FF24C020E030E040E450E4C70196
:10164000B6010E946B1C87FD1AC0CE01880F991F3E
:10165000FC01E45DFC4F2091DA033091DB03318320
:101660002083FC01E750FC4F2091E3023091E4021B
:10167000318320832196D0931702C093160249EF3D
:10168000E42E43E0F42E5CE2852E53E0952E840197
:10169000E701C12CD12C8091160290911702C81637
:1016A000D9060CF063C068817981F801808191814D
:1016B00041E001960E94E913688179816F5F7F4F55
:1016C00041E0F801808191810E94E913688179816C
:1016D0006F5F7F4FF8018081918141E001960E9408
:1016E000E913688179816F5F7F4FF8018081918173
:1016F00041E002960E94E913688179816E5F7F4F15
:1017000041E0F801808191810E94E913688179812B
:101710006E5F7F4FF8018081918141E002960E94C7
:10172000E913688179816D5F7F4F41E0F801808125
:1017300091810E94E913688179816D5F7F4FF80183
:101740008081918141E001960E94E913699179912C
:101750006D5F7F4FF801819191918F0141E0029679
:101760000E94E913FFEFCF1ADF0A95CFC0E0D0E067
:1017700037EF432E32E0532E8091160290911702DC
:10178000C817D9070CF076C00CED13E08DEC682E6D
:1017900082E0782E95EEA92E92E0B92E23E0C22E9B
:1017A00024E0D22EF501419151915F01F801808131
:1017B00091812091760330917703280F391FF4012E
:1017C00080819181840F951F2817390739F0F2E045
:1017D000CF0ED11C4A145B0429F73AC0F3012081D3
:1017E00031818091720390917303280F391FF701A3
:1017F00040815181F60180819181840F951F2817C6
:10180000390729F7BE018CE293E00E946703BE010D
:1018100089EF93E00E94670380911602909117026E
:101820000197909317028093160280910001909186
:1018300001010197909301018093000180910001C3
:10184000909101011816190614F20E94190AF6CF98
:101850000E5F1F4FF2E06F0E711C83E0083E180709
:1018600009F098CF2196E2E08E0E911CF2E0EF0E87
:10187000F11C82CFDF91CF911F910F91FF90EF90DC
:10188000DF90CF90BF90AF909F908F907F906F90A0
:101890005F904F9008958F929F92AF92BF92CF9298
:1018A000DF92EF92FF920F931F93CF93DF9380917C
:1018B000290290912A02059724F00E94B0060E9406
:1018C0001E04CDECD2E09CED892E93E0992E29EDFB
:1018D000C22E22E0D22E36EBA32E33E0B32E88E9BF
:1018E000E82E83E0F82E03EA12E0F70141915191CE
:1018F0007F01F401808191812091760330917703FB
:10190000280F391F8091C0039091C103840F951F48
:1019100028173907B1F42881398180917203909199
:101920007303280F391FF801408151818091D8033A
:101930009091D903840F951F2817390711F40E943D
:10194000190A0E5F1F4FAE14BF0479F62296F2E01B
:101950008F0E911CCC16DD0611F6DF91CF911F91F1
:101960000F91FF90EF90DF90CF90BF90AF909F903E
:101970008F9008950F931F93CF93DF930E94E113ED
:10198000809103018F93809102018F9306E611E00D
:101990001F930F93C8E7D3E0DF93CF930E941A1FE2
:1019A00021E0AE0160E070E082E090E00E94EA1584
:1019B000809101018F93809100018F931F930F936A
:1019C000DF93CF930E941A1F21E0AE0160E070E028
:1019D00084E190E00E94EA1580912A028F93809121
:1019E00029028F931F930F93DF93CF930E941A1FA7
:1019F00021E0AE0160E070E086E290E00E94EA152E
:101A0000809126028F93809125028F9380912802E6
:101A10008F93809127028F9389E691E09F938F9314
:101A2000DF93CF930E941A1F21E0AE0160E070E0C7
:101A300088E390E00E94EA1501E028E030E044E508
:101A400050E068E070E080E090E00E9422140E9484
:101A50007E040E94FF0429E130E04DE050E06FE099
:101A600070E082E190E00E9422142DE230E049E132
:101A700050E063E270E089E190E00E9422142AE0E5
:101A800030E04CE350E06AE070E08DE290E00E94CC
:101A900022142EE130E048E450E069E170E08AE38E
:101AA00090E00E9422140E944B050E94E10A0E94CD
:101AB0004B0C0E940E098DB79EB74A960FB6F8944C
:101AC0009EBF0FBE8DBF8091230281110E941C0911
:101AD000DF91CF911F910F910C94CE1381E08093F1
:101AE00023020E94E1130E94BA0C0E9467040E9424
:101AF000F40482E090E0909303018093020185E07A
:101B000090E0909301018093000110922A021092BC
:101B100029021092210210922002109219021092B2
:101B20001802109217021092160208950E941E0FBA
:101B30000E94370F8823E1F30895FC0101900020F3
:101B4000E9F73197BF01681B790B0C94E90F9F935C
:101B50008F9386E691E09F938F931F9288E08F93F7
:101B60008BE292E09F938F930E94EA1E8DB79EB7FF
:101B700008960FB6F8949EBF0FBE8DBF8BE292E021
:101B80000C949D0DCF93E1E6F0E080E88083C1E006
:101B9000C0838FE30E942D1614BC84E085BDC093E2
:101BA0006E001092900083E080939100C0937100CA
:101BB00078948698859821985098519827982098DD
:101BC0000E947B030E9467040E94F4040E9499060D
:101BD000CF910C94960D0E94FD020E94BA0C0E94B7
:101BE000BD040E94380A7E990C946E0D08950E94DF
:101BF000C20D7D9903C00E94E809FBCF809194003B
:101C0000909195000E94B51D2224239483E7482ECD
:101C100081E0582E90E2392EC8E7D3E02BE8622EFF
:101C200021E0722E30EA832E31E0932E05EB11E095
:101C300042ECE42E41E0F42E5DEDC52E51E0D52EB0
:101C400069EFA62E61E0B62E0E94EB0D0E945D0F9B
:101C50008823D1F30E943A0F8737910579F42091B8
:101C60007203309173032A3031050CF443C02150C4
:101C7000310930937303209372033CC08136910580
:101C800071F420917603309177031216130694F5C0
:101C90002150310930937703209376032BC083378B
:101CA000910571F420917203309173032D32310547
:101CB0003CF52F5F3F4F309373032093720320C096
:101CC0008436910571F48091760390917703813584
:101CD00091050CF0B9CF019690937703809376032A
:101CE000B3CF8037910531F480912402822580930F
:101CF0002402AACF8C36910519F40E946E0DA4CF50
:101D00008936910509F0A0CF809126028F938091AA
:101D100025028F93809128028F93809127028F93C1
:101D20005F924F921F923F92DF93CF930E94EA1EE1
:101D300088E793E00E949D0D809103018F9380912D
:101D400002018F937F926F921F923F92DF93CF9306
:101D50000E94EA1E88E793E00E949D0D8091010198
:101D60008F93809100018F939F928F921F923F9249
:101D7000DF93CF930E94EA1E88E793E00E949D0DB7
:101D800080912A028F93809129028F931F930F9342
:101D90001F923F92DF93CF930E94EA1E8DB79EB7AA
:101DA00082960FB6F8949EBF0FBE8DBF88E793E072
:101DB0000E949D0D809115028F93809114028F9344
:101DC000FF92EF921F923F92DF93CF930E94EA1E01
:101DD00088E793E00E949D0D809117028F93809178
:101DE00016028F93DF92CF921F923F92DF93CF9391
:101DF0000E94EA1E88E793E00E949D0D80911902DF
:101E00008F93809118028F93BF92AF921F923F924F
:101E1000DF93CF930E94EA1E88E793E00E949D0D16
:101E20008DB79EB748960FB6F8949EBF0FBE8DBF74
:101E30000BCF8091E80080FFFCCF089581E0809374
:101E4000D70080EA8093D80082E189BD09B400FE02
:101E5000FDCF80E98093D8001092E0001092360206
:101E6000109233028CE08093E20078940895809180
:101E7000360208959FB7F89480913602882369F05E
:101E800083E08093E9002BE68091E80085FD09C09E
:101E900082FF03C02093E800F7CF9FBF8FEF9FEF33
:101EA00008958091F1002091E80025FD03C02BE604
:101EB0002093E8009FBF90E008952FB7F894809199
:101EC0003602811102C080E010C083E08093E900F7
:101ED0008091F200811109C09091E80092FFF3CF48
:101EE00095FDF1CF9BE69093E8002FBF0895809178
:101EF0003602882371F08FB7F89493E09093E9004D
:101F00002BE69091E80095FF03C02093E800F9CFFD
:101F10008FBF089590913602992371F09FB7F8947E
:101F200024E02093E90020913402222349F02091FB
:101F3000E80025FD03C09FBF8FEF08951092340283
:101F40002091E400275E34E04091E80045FD12C096
:101F50009FBF9091E400291304C081E08093340274
:101F6000EBCF90913602992339F39FB7F8943093D1
:101F7000E900EACF8093F1008091E80085FD03C07D
:101F80008AE38093E80085E0809335029FBF80E07C
:101F90000895909136029923D1F09FB7F89424E0E8
:101FA0002093E9002091E80025FD02C09FBF0FC0EB
:101FB0008093F1008091E80085FD03C08AE380935F
:101FC000E80085E0809335029FBF80E008958FEFA1
:101FD00008950F931F93CF93DF93DC01CB012091E2
:101FE0003602222371F02FB7F89434E03093E900E1
:101FF00030913402332349F03091E80035FD03C0BD
:102000002FBF8FEF43C110923402C4E0D0E41AE333
:1020100005E0009709F439C13091E400375E409142
:10202000E80045FD12C02FBF2091E400321304C028
:1020300081E080933402E5CF20913602222309F318
:102040002FB7F894C093E900EACF3091F200ED2F5A
:10205000E31B4E2F50E08417950708F4E82F8E1BE2
:1020600091094E2F50E04134510508F001C1FA01A9
:10207000EA5AFF4F0C94131D3C913093F1001196D6
:102080003C913093F10011963C913093F100119600
:102090003C913093F10011963C913093F1001196F0
:1020A0003C913093F10011963C913093F1001196E0
:1020B0003C913093F10011963C913093F1001196D0
:1020C0003C913093F10011963C913093F1001196C0
:1020D0003C913093F10011963C913093F1001196B0
:1020E0003C913093F10011963C913093F1001196A0
:1020F0003C913093F10011963C913093F100119690
:102100003C913093F10011963C913093F10011967F
:102110003C913093F10011963C913093F10011966F
:102120003C913093F10011963C913093F10011965F
:102130003C913093F10011963C913093F10011964F
:102140003C913093F10011963C913093F10011963F
:102150003C913093F10011963C913093F10011962F
:102160003C913093F10011963C913093F10011961F
:102170003C913093F10011963C913093F10011960F
:102180003C913093F10011963C913093F1001196FF
:102190003C913093F10011963C913093F1001196EF
:1021A0003C913093F10011963C913093F1001196DF
:1021B0003C913093F10011963C913093F1001196CF
:1021C0003C913093F10011963C913093F1001196BF
:1021D0003C913093F10011963C913093F1001196AF
:1021E0003C913093F10011963C913093F10011969F
:1021F0003C913093F10011963C913093F10011968F
:102200003C913093F10011963C913093F10011967E
:102210003C913093F10011963C913093F10011966E
:102220003C913093F10011963C913093F10011965E
:102230003C913093F10011963C913093F10011964E
:102240003C913093F10011963C913093F10011963E
:102250003C913093F10011963C913093F10011962E
:102260003C913093F10011963C913093F10011961E
:102270003C913093F10011963091E80035FF1093B6
:10228000E800009335022FBFC4CE80E0DF91CF91EC
:102290001F910F9108958FB7F8949091350299236B
:1022A00041F094E09093E9009AE39093E800109253
:1022B00035028FBF089560910401709105018091EE
:1022C0000601909107010895809108010895809179
:1022D0000901089580910A010895809133020895BB
:1022E0009FB7F89420913602222339F022E0209300
:1022F000E9002091E80025FD03C09FBF8FEF0895FE
:1023000021EA2093F10020E22093F1001092F100E5
:102310001092F1001092F1001092F10021E0209350
:10232000F1001092F1008093F1008AE38093E800BD
:102330009FBF80E008951F920F920FB60F92112455
:102340008F939F938091E1001092E10083FF11C071
:102350001092E90091E09093EB001092EC0092E172
:102360009093ED0098E09093F00010923602109256
:10237000330282FF13C080913602882379F0809166
:102380003502882359F0815080933502811106C0AF
:1023900084E08093E9008AE38093E8009F918F9125
:1023A0000F900FBE0F901F9018951F920F920FB6AF
:1023B0000F921124FF920F931F932F933F934F93EC
:1023C0005F936F937F938F939F93AF93BF93CF93BD
:1023D000DF93EF93FF931092E9008091E80083FF71
:1023E00017C1F090F1008091F1000091F1009091FF
:1023F000F10010E0192BC091F1009091F100D0E0B4
:10240000D92B2091F1006091F10092EF9093E800B8
:10241000863009F049C080E392E04AE552E0FC01D1
:10242000A591B4910A171B07D9F4FC013296A59126
:10243000B491CA17DB07A1F4FC013496459154917D
:10244000FC013696849130E0362B2F3F310519F090
:1024500010F02FEF30E0281708F4822F3EEF0CC069
:10246000079648175907D9F6D3C0490F511D891B44
:102470003093E8008823A9F09091E800292F257077
:10248000D9F392FDC8C0982F813108F090E1FA018C
:10249000292F222351F364916093F100215031964A
:1024A000F8CF903149F3B7C0853049F48EEF80936F
:1024B000E8000E94190F00680093E300ACC0893067
:1024C00059F5F110A5C00093360210923302109214
:1024D00035028EEF8093E80041E08FEE92E040936A
:1024E000E9009C012F5F3F4FFC0154915093EB009A
:1024F000552359F0F90124912093EC009C012D5FA4
:102500003F4F3196E491E093ED004F5F453011F07D
:10251000C901E5CF8EE177C0883051F4F0E8FF12B1
:1025200077C00E94190F809136028093F10049C054
:10253000813281F481EAF8126BC00E94190FE4E045
:10254000F1E08BE091E021912093F1008E179F073D
:10255000D1F737C08032A9F491E2F91259C08091C5
:10256000E80082FFFCCFE4E0F1E08BE091E0209115
:10257000F10021938E179F07D1F78BEF8093E8002E
:1025800020C0823241F4E1E2FE1242C000933302E5
:102590000E94190F16C0811118C00E94190FF2E88D
:1025A000FF120AC0C093E9008091EB0085FB8827E9
:1025B00080F91092E90001C080E08093F100109250
:1025C000F1008EEF8093E80026C0982F9D7F913018
:1025D000F9F492E0F9121CC0012BD1F4CF779FEFF0
:1025E0009C0F9430A8F49EEF9093E800C093E9000C
:1025F000833071F089E18093EB0081E090E001C0CD
:10260000880FCA95EAF78093EA001092EA0003C0A7
:1026100081E28093EB00FF91EF91DF91CF91BF9129
:10262000AF919F918F917F916F915F914F913F916A
:102630002F911F910F91FF900F900FBE0F901F9041
:1026400018959B01AC01F89460E079E08DE390E08F
:102650000E94F11CDA01C9010197A109B109B695DF
:10266000A795979587959093CD008093CC0082E0B5
:102670008093C80088E98093C90086E08093CA00EF
:102680001092790210927A02109237021092380258
:102690007894089590917A029F5F983208F090E0C4
:1026A000209179029217E1F3E92FF0E0E558FD4F10
:1026B000808390937A0288EB8093C900089590916B
:1026C0003802809137029817D1F3909137029F5FBB
:1026D000903408F090E0E92FF0E0E75CFD4F808156
:1026E00090933702089580913802909137028917AC
:1026F00008F4805C891B08951F920F920FB60F9209
:1027000011248F939F93EF93FF9390917A0280917E
:102710007902981304C088E98093C9000FC08091A2
:1027200079028F5F883208F080E0E82FF0E0E5580A
:10273000FD4F90819093CE0080937902FF91EF91AD
:102740009F918F910F900FBE0F901F9018951F9221
:102750000F920FB60F9211242F938F939F93EF93A5
:10276000FF939091CE00809138028F5F803408F003
:1027700080E020913702821739F0E82FF0E0E75C23
:10278000FD4F908380933802FF91EF919F918F913D
:102790002F910F900FBE0F901F901895CF93DF933E
:1027A00060E080E00E946A16C5E1D4E0699181E0B2
:1027B0000E940F1686E0CD30D807C1F7DF91CF9188
:1027C0000895E5E1F4E0119286E0ED30F807D9F7DD
:1027D000089584359105A8F56033710590F59B0146
:1027E00073E0359527957A95E1F76770452BA1F051
:1027F00044E5429FF001439FF00D11248E0F9F1F6F
:10280000FC01EB5EFB4F81E090E001C0880F6A9510
:10281000EAF79081892B14C044E5429FF001439F61
:10282000F00D11248E0F9F1FFC01EB5EFB4F81E02A
:1028300090E001C0880F6A95EAF78095908189231E
:10284000808308952F923F924F925F926F927F9272
:102850008F929F92AF92BF92CF92DF92EF92FF92B0
:102860000F931F93CF93DF93CDB7DEB72E970FB69D
:10287000F894DEBF0FBECDBF1C013B012A013A8395
:1028800029838417950771F57C836B8329813A81AD
:10289000621673069CF48B819C81281739070CF40F
:1028A0001AC1A8016B817C81C1010E94E9132B81AF
:1028B0003C812F5F3F4F3C832B83E8CFAB81BC81B2
:1028C00029813A81A217B3070CF405C1A8016B81D5
:1028D0007C81C1010E94E9138B819C8101979C83BB
:1028E0008B83D4CF89819A816817790751F53A8211
:1028F0002982241435049CF4A981BA814A165B0606
:102900000CF4E9C0A801B30189819A810E94E913FE
:1029100029813A812F5F3F4F3A832983EACF29816A
:102920003A81241535050CF4D6C0A801B30189817C
:102930009A810E94E913A981BA811197BA83A98368
:10294000D8CF4215530554F4872D69807A80698366
:102950008A83922D832D1A01492E582EB2016219B5
:102960007309072E000C880B990B0E940F1B6F83B5
:10297000788789879A8769817A8166197709072E0E
:10298000000C880B990B0E940F1B4B015C012F81DF
:10299000388549855A850E94651A6B837C838D83AF
:1029A0009E8320E030E0A9010E946B1C87FF09C0D4
:1029B0008B819C81AD81BE81B0588B839C83AD831C
:1029C000BE83C12CD12C760120E030E0A9016F81BB
:1029D000788589859A850E946B1C18160CF077C043
:1029E000421453040CF477C0A801B301C1010E9442
:1029F000E9132B813C814D815E81C701B6010E94A4
:102A0000F4196B017C0120E030E040E05FE30E94BC
:102A10006B1C87FF10C020E030E0A9016F81788532
:102A200089859A850E946B1C18160CF04CC09FEF8C
:102A3000291A390AC9CF20E030E0A901C501B40143
:102A40000E946B1C1816CCF529813A812615370592
:102A500014F3A801B301C1010E94E913A1E0B0E0A1
:102A6000BC87AB8720E030E0A901C501B4010E941A
:102A70006B1C181614F01C861B8621E030E03E8784
:102A80002D8720E030E0A901C501B4010E94601A41
:102A900087FD02C01E861D868B859C85AD85BE8503
:102AA0008A1B9B0B680E791E20E030E040E85FE354
:102AB000C701B6010E94F319A4CF89819A816816D3
:102AC00079063CF6A8CFA1E02A1A31087DCF24145C
:102AD00035040CF089CF2E960FB6F894DEBF0FBEEA
:102AE000CDBFDF91CF911F910F91FF90EF90DF90BD
:102AF000CF90BF90AF909F908F907F906F905F909E
:102B00004F903F902F9008952F923F924F925F9257
:102B10006F927F928F929F92AF92BF92CF92DF92ED
:102B2000EF92FF920F931F93CF93DF936C014B01B2
:102B3000190185E0489F20011124E12CF12C80EA45
:102B4000481A510866246394712CF201EE0DFF1DA2
:102B5000E750FD4FE4912114310409F4E09500E0C1
:102B600010E0CE2FD0E05601AE0CBF1CA301002E0A
:102B700002C0440F551F0A94E2F74C235D23002E38
:102B800002C0559547950A94E2F7B401600F711F92
:102B9000C5010E94E9130F5F1F4F0830110531F77F
:102BA0008FEFE81AF80A85E0E816F10471F6DF9174
:102BB000CF911F910F91FF90EF90DF90CF90BF903A
:102BC000AF909F908F907F906F905F904F903F90CD
:102BD0002F900895CF92DF92EF92FF920F931F9361
:102BE000CF93DF937B018A016901D82FC0E0F80100
:102BF000EC0FF11D4081442349F09601B7018D2F60
:102C000090E00E948415DB5FCF5FF1CFDF91CF9121
:102C10001F910F91FF90EF90DF90CF90089525B115
:102C20002F7D30E2839FC0011124822B85B95F98EC
:102C300087E090E070E08F989B01082E02C03595E8
:102C400027950A94E2F720FF02C02E9A01C02E9821
:102C50008F9A019780F75F9A0895CF93C82F579A5C
:102C6000249A259A269A879A2C985F9A2C9A61E240
:102C700080E00E940F166C2F606880E00E940F16A3
:102C800064E080E00E940F1663E180E00E940F166E
:102C90006CE080E00E940F1660E280E00E940F1658
:102CA0006CE080E00E940F1660E480E00E940F1646
:102CB00060E880E0CF910C940F16CF93DF93C8EFBC
:102CC000D1E060E081E00E940F162197D1F7DF91FB
:102CD000CF910895CF93C82F606480E00E940F16B3
:102CE0006C2F606880E0CF910C940F16A0E1B0E0EB
:102CF000ECE7F6E10C94191D7C011B016A01FC0153
:102D000017821682838181FF44C39E012F5F3F4F4C
:102D10003901F7019381F10193FD859193FF819131
:102D20001F01882309F431C3853239F493FD85915D
:102D300093FF81911F01853239F4B70190E00E9421
:102D4000AE1E56016501E5CF10E0512C912CFFE13C
:102D5000F915D8F08B3279F038F4803279F083327B
:102D6000A1F4F92DF0612EC08D3261F0803369F449
:102D7000292D21602DC0392D3260932E892D84603C
:102D8000982E2AC0E92DE86015C097FC2DC020EDD3
:102D9000280F2A3088F496FE06C03AE0139F200DD3
:102DA0001124122F19C08AE0589E200D1124522E92
:102DB000E92DE0629E2E10C08E3231F496FCE5C201
:102DC000F92DF0649F2E08C08C3621F4292D20683F
:102DD000922E02C0883641F4F10193FD859193FF54
:102DE00081911F018111B3CF9BEB980F933020F499
:102DF000992D9061805E07C09BE9980F933008F091
:102E000066C1992D9F7E96FF16E09F73992E853699
:102E100019F49064992E08C0863621F4392F306851
:102E2000932E02C01111115097FE07C01C3350F4AD
:102E300044244394410E27E00BC0183038F027E0BB
:102E400017E005C027E09CE3492E02C0212F412C4A
:102E5000560184E0A80EB11CF60160817181828167
:102E60009381042DA3010E94C01D6C01F981FC8790
:102E7000F0FF02C0F3FF06C091FC06C092FE06C040
:102E800000E205C00DE203C00BE201C000E08C854A
:102E90008C7019F001115AC29BC297FE10C04C0CE5
:102EA000FC85F4FF04C08A81813309F44A94141428
:102EB00074F528E0241578F588E0482E2CC096FC9F
:102EC0002AC0812F90E08C159D059CF03CEFC31625
:102ED0003FEFD30674F0892D8068982E0AC0E2E097
:102EE000F0E0EC0FFD1FE10FF11D8081803319F43C
:102EF00011501111F4CF97FE0EC044244394410E9B
:102F0000812F90E0C816D9062CF41C1904C0442463
:102F1000439401C010E097FE06C01C141D0434F455
:102F2000C601019605C085E090E002C081E090E016
:102F300001110196112331F0212F30E02F5F3F4F17
:102F4000820F931F252D30E08217930714F4581A2F
:102F500001C0512C892D897049F4552039F0B701F1
:102F600080E290E00E94AE1E5A94F7CF002329F031
:102F7000B701802F90E00E94AE1E93FC09C055203F
:102F800039F0B70180E390E00E94AE1E5A94F7CF6B
:102F900097FE4CC04601D7FE02C0812C912CC60181
:102FA00088199909F301E80FF91FFE87ED8796014B
:102FB00024193109388B2F87012F10E011950195C5
:102FC00011093FEF8316930629F4B7018EE290E0D2
:102FD0000E94AE1EC814D9044CF08F8598898815BC
:102FE000990524F4ED85FE85818101C080E3F1E03F
:102FF0008F1A91082D853E852F5F3F4F3E872D8785
:10300000801691062CF0B70190E00E94AE1ED9CF39
:10301000C814D90441F49A81963320F4953319F4F5
:103020003C8534FF81E3B70190E04EC08A81813353
:1030300019F09C859F7E9C87B70190E00E94AE1E90
:10304000111105C094FC18C085E690E017C0B701C7
:103050008EE290E00E94AE1E1E5F82E001E0080F4B
:10306000F301E80FF11D8081B70190E00E94AE1ED0
:10307000802F0113F3CFE6CF85E490E0B7010E94E3
:10308000AE1ED7FC06C0C114D10441F4EC85E4FFA8
:1030900005C0D194C194D1088DE201C08BE2B70183
:1030A00090E00E94AE1E80E32AE0C216D1042CF00C
:1030B0008F5FFAE0CF1AD108F7CFB70190E00E94F6
:1030C000AE1EB701C601C0960E94AE1E54C1833623
:1030D00031F0833779F0833509F056C020C05601AE
:1030E00032E0A30EB11CF6018081898301E010E07B
:1030F000630112C05601F2E0AF0EB11CF601C080B0
:10310000D18096FE03C0612F70E002C06FEF7FEFA9
:10311000C6010E94A31E8C01F92DFF7714C0560131
:1031200022E0A20EB11CF601C080D18096FE03C041
:10313000612F70E002C06FEF7FEFC6010E94981E02
:103140008C01F92DF0689F2EF3FD1AC0852D90E0BB
:1031500008171907A8F4B70180E290E00E94AE1E9C
:103160005A94F4CFF60197FC859197FE81916F01F7
:10317000B70190E00E94AE1E51105A9401501109FF
:103180000115110579F7F7C0843611F0893661F51C
:10319000560197FE09C024E0A20EB11CF601608121
:1031A0007181828193810AC0F2E0AF0EB11CF601F9
:1031B00060817181072E000C880B990BF92DFF7629
:1031C0009F2E97FF09C090958095709561957F4FD0
:1031D0008F4F9F4FF0689F2E2AE030E0A3010E949E
:1031E0003C1FC82EC6183FC0092D853721F40F7E1D
:1031F0002AE030E01DC0097F8F3691F018F4883541
:1032000059F0C3C0803719F0883711F0BEC0006193
:1032100004FF09C0046007C094FE08C0066006C031
:1032200028E030E005C020E130E002C020E132E0DB
:10323000560107FF09C084E0A80EB11CF6016081A9
:1032400071818281938108C0F2E0AF0EB11CF6015A
:103250006081718180E090E0A3010E943C1FC82E34
:10326000C6180F77902E96FE0BC0092D0E7FC11643
:1032700050F494FE0AC092FC08C0092D0E7E05C0D1
:10328000DC2C092D03C0DC2C01C0D12E04FF0DC0A5
:10329000FE01EC0DF11D8081803311F4097E09C01F
:1032A00002FF06C0D394D39404C0802F867809F01F
:1032B000D39403FD11C000FF06C01C2DD51480F46B
:1032C000150D1D190DC0D51458F4B70180E290E01A
:1032D0000E94AE1ED394F7CFD51410F45D1801C030
:1032E000512C04FF10C0B70180E390E00E94AE1E95
:1032F00002FF17C001FD03C088E790E002C088E527
:1033000090E0B7010CC0802F867859F001FF02C011
:103310008BE201C080E207FD8DE2B70190E00E94E0
:10332000AE1EC11638F4B70180E390E00E94AE1ED5
:103330001150F7CFCA94F301EC0DF11D8081B70154
:1033400090E00E94AE1EC110F5CF15C0F4E0F51557
:1033500060F584E0581A93FE1FC0011127C02C8528
:1033600023FF2AC00EE211E0392D3071932EF801AF
:103370008491811124C0552009F4E4CCB70180E286
:1033800090E00E94AE1E5A94F6CFF7018681978195
:1033900026C08FEF9FEF23C0B70180E290E00E942C
:1033A000AE1E5A945110F8CFD8CF512CB701802FB0
:1033B00090E00E94AE1ED3CF02E311E0D5CF911072
:1033C0008052B70190E00E94AE1E0F5F1F4FCFCF1B
:1033D00023E0251510F483E0BDCF512CC0CF6096BB
:1033E000E2E10C94351D5058BB27AA270E940B1A06
:1033F0000C94191C0E940B1C38F00E94121C20F027
:1034000039F49F3F19F426F40C94081C0EF4E0954F
:10341000E7FB0C94D91BE92F0E942A1C58F3BA171A
:10342000620773078407950720F079F4A6F50C94DA
:10343000641C0EF4E0950B2EBA2FA02D0B01B901E0
:1034400090010C01CA01A0011124FF27591B99F01A
:10345000593F50F4503E68F11A16F040A22F232F26
:10346000342F4427585FF3CF469537952795A79576
:10347000F0405395C9F77EF41F16BA0B620B730B1D
:10348000840BBAF09150A1F0FF0FBB1F661F771F8E
:10349000881FC2F70EC0BA0F621F731F841F48F443
:1034A000879577956795B795F7959E3F08F0B0CFCC
:1034B0009395880F08F09927EE0F979587950895B3
:1034C0000E94B51B08F481E008950E94791A0C94BB
:1034D000191C0E94121C58F00E940B1C40F029F489
:1034E0005F3F29F00C94D91B51110C94651C0C946E
:1034F000081C0E942A1C68F39923B1F3552391F309
:10350000951B550BBB27AA2762177307840738F052
:103510009F5F5F4F220F331F441FAA1FA9F335D0AF
:103520000E2E3AF0E0E832D091505040E695001C63
:10353000CAF72BD0FE2F29D0660F771F881FBB1F1D
:10354000261737074807AB07B0E809F0BB0B802DFB
:10355000BF01FF2793585F4F3AF09E3F510578F027
:103560000C94D91B0C94651C5F3FE4F3983ED4F394
:10357000869577956795B795F7959F5FC9F7880FFB
:10358000911D9695879597F90895E1E0660F771F4D
:10359000881FBB1F621773078407BA0720F0621BDE
:1035A000730B840BBA0BEE1F88F7E09508950E9409
:1035B000DE1A6894B1110C94651C08950E94321CA7
:1035C00088F09F5798F0B92F9927B751B0F0E1F0E4
:1035D000660F771F881F991F1AF0BA95C9F714C094
:1035E000B13091F00E94641CB1E008950C94641C09
:1035F000672F782F8827B85F39F0B93FCCF38695CD
:1036000077956795B395D9F73EF490958095709529
:1036100061957F4F8F4F9F4F0895E89409C097FBA6
:103620003EF490958095709561957F4F8F4F9F4F99
:103630009923A9F0F92F96E9BB279395F6958795DD
:1036400077956795B795F111F8CFFAF4BB0F11F4A0
:1036500060FF1BC06F5F7F4F8F4F9F4F16C0882347
:1036600011F096E911C0772321F09EE8872F762F7D
:1036700005C0662371F096E8862F70E060E02AF0BE
:103680009A95660F771F881FDAF7880F96958795AA
:1036900097F908950E944C1C90F09F3748F49111BF
:1036A00016F00C94651C60E070E080E89FEB0895D4
:1036B00026F41B16611D711D811D0C94DF1B0C94DB
:1036C000FA1B0E940B1C20F019F00E94121C50F4EF
:1036D0000C94081C0C94651CE92F0E942A1C88F38A
:1036E0005523B1F3E7FB6217730784079507A8F129
:1036F00089F3E92FFF2788232AF03197660F771F78
:10370000881FDAF7952F5527442332F09150504007
:10371000220F331F441FD2F7BB27E91BF50B621B97
:10372000730B840BB109B1F222F4620F731F841F73
:10373000B11D31972AF0660F771F881FBB1FEFCF8F
:103740009150504062F041F0882332F0660F771FAD
:10375000881F91505040C1F793950C94FA1B8695A1
:10376000779567959F5FD9F7F7CF990F0008550FA9
:10377000AA0BE0E8FEEF16161706E807F907C0F0F7
:1037800012161306E407F50798F0621B730B840BFF
:10379000950B39F40A2661F0232B242B252B21F4D9
:1037A00008950A2609F4A140A6958FEF811D811D79
:1037B000089597F99F6780E870E060E00895882396
:1037C00071F4772321F09850872B762F07C066235A
:1037D00011F499270DC09051862B70E060E02AF01B
:1037E0009A95660F771F881FDAF7880F9695879549
:1037F00097F908959F3F31F0915020F48795779580
:103800006795B795880F911D9695879597F90895B7
:103810009FEF80EC089500240A94161617061806E8
:103820000906089500240A941216130614060506C4
:103830000895092E0394000C11F4882352F0BB0F55
:1038400040F4BF2B11F460FF04C06F5F7F4F8F4FB8
:103850009F4F089557FD9058440F551F59F05F3FF3
:1038600071F04795880F97FB991F61F09F3F79F0A2
:1038700087950895121613061406551FF2CF469524
:10388000F1DF08C0161617061806991FF1CF8695A6
:1038900071056105089408950E94321CA0F0BEE7EE
:1038A000B91788F4BB279F3860F41616B11D672F2F
:1038B000782F8827985FF7CF869577956795B11D04
:1038C00093959639C8F30895E894BB276627772720
:1038D000CB0197F908950E94B51B08F48FEF089566
:1038E0000E94831C0C94191C0E940B1C38F00E942F
:1038F000121C20F0952311F00C94D91B0C94081C79
:1039000011240C94651C0E942A1C70F3959FC1F32E
:10391000950F50E0551F629FF001729FBB27F00D7D
:10392000B11D639FAA27F00DB11DAA1F649F6627D2
:10393000B00DA11D661F829F2227B00DA11D621F21
:10394000739FB00DA11D621F839FA00D611D221FDB
:10395000749F3327A00D611D231F849F600D211DBF
:10396000822F762F6A2F11249F5750409AF0F1F042
:1039700088234AF0EE0FFF1FBB1F661F771F881FAB
:1039800091505040A9F79E3F510580F00C94D91BEF
:103990000C94651C5F3FE4F3983ED4F386957795CD
:1039A0006795B795F795E7959F5FC1F7FE2B880F51
:1039B000911D9695879597F9089597FB072E16F414
:1039C000009407D077FD09D00E94501D07FC05D058
:1039D0003EF4909581959F4F0895709561957F4F26
:1039E0000895A1E21A2EAA1BBB1BFD010DC0AA1F40
:1039F000BB1FEE1FFF1FA217B307E407F50720F058
:103A0000A21BB30BE40BF50B661F771F881F991FD2
:103A10001A9469F760957095809590959B01AC011B
:103A2000BD01CF010895EE0FFF1F0590F491E02D29
:103A300009942F923F924F925F926F927F928F9252
:103A40009F92AF92BF92CF92DF92EF92FF920F932D
:103A50001F93CF93DF93CDB7DEB7CA1BDB0B0FB637
:103A6000F894DEBF0FBECDBF09942A8839884888F4
:103A70005F846E847D848C849B84AA84B984C8848A
:103A8000DF80EE80FD800C811B81AA81B981CE0F81
:103A9000D11D0FB6F894DEBF0FBECDBFED01089566
:103AA000AA1BBB1B51E107C0AA1FBB1FA617B70764
:103AB00010F0A61BB70B881F991F5A95A9F7809580
:103AC0009095BC01CD0108958F929F92AF92BF92C5
:103AD000CF92DF92EF92FF92CF93DF93EC01688158
:103AE00079818A819B81611571058105910521F498
:103AF00064E279ED8BE597E02DE133EF41E050E0B2
:103B00000E949A1F49015A019B01AC01A7EAB1E446
:103B10000E94B91F6B017C01ACEEB4EFA5019401CA
:103B20000E94C71FDC01CB018C0D9D1DAE1DBF1D6A
:103B3000B7FF03C00197A109B04888839983AA837E
:103B4000BB839F77DF91CF91FF90EF90DF90CF9075
:103B5000BF90AF909F908F9008950E94641D08952C
:103B60008BE091E00E94641D0895A0E0B0E0809396
:103B70000B0190930C01A0930D01B0930E010895D9
:103B8000283008F027E03327DA01990F311D87FD2F
:103B9000916000966105710539F432602E5F3D93A6
:103BA00030E32A95E1F708959F3F30F080387105A2
:103BB000610509F03C5F3C5F3D93913008F08068FF
:103BC000911DDF93CF931F930F93FF92EF92192FC5
:103BD000987F9695E92F96959695E90FFF27E057E0
:103BE000FE4F99273327EE24FF24A701E701059014
:103BF0000894079428F4360FE71EF81E491F511D3C
:103C0000660F771F881F991F0694A1F705900794E8
:103C100028F4E70EF81E491F561FC11D770F881F95
:103C2000991F661F0694A1F70590079428F4F80ED3
:103C3000491F561FC71FD11D880F991F661F771F69
:103C40000694A1F70590079420F4490F561FC71F4B
:103C5000D81F990F661F771F881F0694A9F78491B4
:103C60001095177041F0D695C79557954795F794DD
:103C7000E7941A95C1F7E6E3F1E068941590159181
:103C800035916591959105907FE27395E118F10A60
:103C9000430B560BC90BD009C0F7E10CF11E431FB3
:103CA000561FC91FD01D7EF4703311F48A95E6CFDC
:103CB000E894015030F0080F0AF40027021708F4C6
:103CC000202F2395022F7A3328F079E37D932A95CC
:103CD000E9F710C07D932A9589F606949795679524
:103CE000379517951794E118F10A430B560BC90B3A
:103CF000D00998F023957E9173957A3308F070E39C
:103D00007C932013B8F77E9170617D9330F083959A
:103D100071E37D9370E32A95E1F71124EF90FF9012
:103D20000F911F91CF91DF91992787FD909508956D
:103D3000FC010590615070400110D8F78095909576
:103D40008E0F9F1F0895FC0161507040019001107B
:103D5000D8F7809590958E0F9F1F08950F931F930E
:103D6000CF93DF93FB01238121FD03C08FEF9FEFF2
:103D70002CC022FF16C0468157812481358142170D
:103D8000530744F4A081B1819D012F5F3F4F3183E0
:103D900020838C93268137812F5F3F4F3783268383
:103DA00014C08B01EC01FB010084F185E02D099525
:103DB000892BE1F6D80116968D919C911797019663
:103DC00017969C938E931697CE01DF91CF911F91FA
:103DD0000F910895AEE0B0E0E0EFFEE10C94271DF6
:103DE0000D891E898F89988D26E02C831A8309837B
:103DF00097FF02C080E090E801979E838D83AE011B
:103E0000455E5F4F698D7A8DCE0101960E947616D0
:103E10004D815E8157FD0AC02F81388542175307B7
:103E20000CF49A01F801E20FF31F10822E96E4E0E1
:103E30000C94431DAEE0B0E0E0E2FFE10C94271DDE
:103E40000D891E8986E08C831A8309838FEF9FE793
:103E50009E838D83AE01475E5F4F6F89788DCE0163
:103E600001960E947616EF81F885E00FF11F10820F
:103E70002E96E4E00C94431DFA01AA27283051F154
:103E8000203181F1E8946F936E7F6E5F7F4F8F4F8B
:103E90009F4FAF4FB1E03ED0B4E03CD0670F781FEA
:103EA000891F9A1FA11D680F791F8A1F911DA11DCF
:103EB0006A0F711D811D911DA11D20D009F4689408
:103EC0003F912AE0269F11243019305D3193DEF6B0
:103ED000CF010895462F4770405D4193B3E00FD066
:103EE000C9F7F6CF462F4F70405D4A3318F0495D51
:103EF00031FD4052419302D0A9F7EACFB4E0A69534
:103F00009795879577956795BA95C9F70097610555
:103F1000710508959B01AC010A2E069457954795AB
:103F200037952795BA95C9F7620F731F841F951FA0
:103F3000A01D0895052E97FB1EF400940E94B11F4A
:103F400057FD07D00E94F11C07FC03D04EF40C94DF
:103F5000B11F50954095309521953F4F4F4F5F4F82
:103F6000089590958095709561957F4F8F4F9F4FE5
:103F700008950E94CC1FA59F900DB49F900DA49F03
:103F8000800D911D11240895B7FF0C94B91F0E9454
:103F9000B91F821B930B0895A29FB001B39FC0016C
:103FA000A39F700D811D1124911DB29F700D811D65
:0A3FB0001124911D0895F894FFCF2D
:103FBA000500010000E100000000080100000008FF
:103FCA00004E6F616820547265696368656C006EA3
:103FDA00313035333332303600546F6D20616E64C0
:103FEA00204A657272792773004672616E7469633A
:103FFA0020507572737569740047616D65204F763C
:10400A006572005468616E6B7300466F7220506C63
:10401A006179696E6700256400252E32643A252E7F
:10402A0032640054696D657374616D703A20252E8F
:10403A0032643A252E3264200D0A00437572726585
:10404A006E74204C6576656C3A202564200D0A0052
:10405A004A657272792773204C697665733A20250E
:10406A0064200D0A0053636F72653A202564200D9F
:10407A000A0046697265776F726B73206F6E205300
:10408A00637265656E3A202564200D0A004D6F75CE
:10409A0073657472617073206F6E20536372656505
:1040AA006E3A202564200D0A004368656573652011
:1040BA006F6E2053637265656E3A202564200D0A7F
:0240CA000000F4
:00000001FF
